:020000040800F2
:100000000000012021290008FD8300080984000860
:1000100011840008198400082184000800000000F1
:10002000000000000000000000000000358400080F
:10003000298400080000000041840008ED46000803
:100040004D84000859840008658400087184000804
:100050007D84000889840008BD780008257900089F
:100060008D79000899790008A57900089584000821
:10007000A1840008AD840008B9840008C584000884
:10008000D1840008DD840008E9840008F5840008B4
:10009000018500080D85000819850008B179000860
:1000A00025850008318500083D8500084985000840
:1000B000254E0008BD4F0008D58500080D860008B4
:1000C000998C0008F98C0008058D0008118D000836
:1000D0001D8D0008095F0008619E0008A99F0008A7
:1000E000297B0008298D0008358D0008418D000806
:1000F0004D8D0008598D0008658D0008718D000830
:100100007D8D0008898D0008958D0008A18D00085F
:10011000AD8D0008B98D0008C58D0008D18D00088F
:10012000DD8D0008E98D0008F58D0008318F00088D
:1001300040F2F4030146C2F20003186800F008B868
:1001400040F2F4030146C2F20003186800F040BD1B
:100150002DE9F04F01F10B04162C83B0064631D97E
:1001600024F00704E30F8C422CBF194643F0010131
:10017000002930D1304600F0EFFBB4F5FC7F2FD2E0
:100180004FEAD40C40F2E815C2F2000505EBCC02B0
:100190002F46D368934200F02D825C6803F1080873
:1001A000DA68304624F0030499681B195C68CA6059
:1001B00044F0010491605C6000F0D0FB404603B065
:1001C000BDE8F08F002310248C422CBF194643F069
:1001D00001010029CED00C234FF000083360EDE779
:1001E0005FEA542C04BF4FEAD40C4FEACC0040F035
:1001F000868040F2E815C2F2000528182F46C36831
:10020000984206D10DE0002980F27981DB6898429E
:1002100007D05A6822F00302111B0F29F3DD0CF1FD
:10022000FF3C0CF1010CBD4A93689A4208BF786804
:1002300024D0586820F00300011B0F2900F3C0816F
:100240000029D260926080F29480B0F5007F80F047
:100250007781C0084FF0010ED7F8048007EBC0018A
:1002600080100EFA00F0D960D1F808E040EA0800EA
:100270007860C3F808E0CEF80C308B604FF0010EC8
:100280004FEAAC030EFA03FE86457DD810EA0E0F46
:1002900008D12CF0030C4FEA4E0E0CF1040C10EABE
:1002A0000E0FF8D007EBCC0AE146D046D8F80C0088
:1002B000804507D196E1002B80F2A681C068804579
:1002C00000F09081416821F003010B1B0F2BF2DD40
:1002D0008046C568011944F0010E58F8087F43F0C4
:1002E0000104C0F804E030464C60FD60AF60D160AE
:1002F0009160CA608A60CB5000F030FB5EE7BCF1D1
:10030000040F9EBF4FEA941C0CF1380C4FEACC004E
:100310007FF66FAFBCF1140F9CBF0CF15B0C4FEA82
:10032000CC007FF666AFBCF1540F9EBF4FEA143C81
:100330000CF16E0C4FEACC007FF65BAFBCF5AA7FE8
:100340009EBF4FEAD43C0CF1770C4FEACC007FF60D
:1003500050AF40F254539C4595BF4FEA944C4FF434
:100360007C700CF17C0C4FF07E0C98BF4FEACC00F7
:100370003FE71A1803F108083046536843F00103B9
:10038000536000F0EBFA19E7D7F80880D8F804308A
:1003900023F003094C45C4EB090294BF0023012359
:1003A0000F2AD8BF43F00103002B00F0B98041F6BB
:1003B000104AD5F80834C2F2000A3046B3F1FF3FC4
:1003C000DAF8002002F1100BA3441FBF0BF57E6B7F
:1003D0000BF11F0B2BF47E6B2BF01F0B594600F01B
:1003E0005FFBB0F1FF3F034600F0188108EB090105
:1003F000814200F21081DAF8042081425A44CAF89E
:10040000042000F03E81D5F808E440F2E815C2F27D
:100410000005BEF1FF3F17BF8218C5F80804C1EB05
:100420000201CAF8041010F0070517BFC5F108054E
:100430004FF48055431905F5805503EB0B02304608
:1004400001931205120DAD1A294600F029FB019BFC
:10045000B0F1FF3F00F02C81C11A491941F00101B0
:10046000DAF80420B84541F6104BBB602A44C2F2CA
:10047000000B5960CAF8042017D0B9F10F0F40F2F1
:10048000E180A9F10C03D8F8045023F007030520FC
:1004900008EB03010F2B05F0010543EA0505C8F839
:1004A00004504860886000F2FB80DAF82C1041F6B6
:1004B0001043C2F200038A42DAF8301088BFDA62D1
:1004C00041F610438A42C2F2000340F2A780D7F8F7
:1004D00008801A63D8F8043023F003039C42C4EB6D
:1004E000030294BF002301230F2AD8BF43F0010366
:1004F000B3B130464FF0000800F030FA5EE69A18CB
:10050000D9689C6803F108085568304645F0010336
:10051000E1608C60536000F021FA4FE6F0010020AA
:1005200008EB040342F0010244F001043046C8F82D
:10053000044008F108085A60BB6000F00FFA3DE67D
:10054000410A04299CBF4FEA901E0EF1380E1DD9B6
:10055000142998BF01F15B0E18D954299CBF4FEAAA
:10056000103E0EF16E0E11D9B1F5AA7F9CBF4FEA75
:10057000D03E0EF1770E09D940F2545E714596BF18
:100580004FEA904E4FF07E0E0EF17C0E07EBCE0838
:10059000D8F80810414503D147E08968884505D05F
:1005A000D1F804E02EF0030E7045F6D3D1F80CE03C
:1005B000C3F80CE099607868CB60CEF808305DE64F
:1005C0001D1941F00107D56044F0010495603046E3
:1005D0005C6003F10808EA60AA606F60695000F08F
:1005E000BDF9EBE509F1010919F0030F2FD008F16E
:1005F00008085BE603F108025B699A4208BF0CF148
:10060000020C3FF410AEC8E580464318C26830467D
:1006100058F8081FCAE5B8453FF4EDAED7F8088092
:10062000D8F8043023F0030358E74FF00109D7F856
:1006300004804FEAAE008E4609FA00F048EA000056
:100640007860B5E7984601225A60002346E7514694
:100650001CF0030F0B460CF1FF3C2CD053F808198B
:100660009942F5D07B684FEA4E0E9E453FF68CAE20
:10067000BEF1000F3FF488AE1EEA030F20D0CC4637
:1006800010E64FEA015E4FEA1E5EBEF1000F7FF4F6
:10069000BAAEBB680BEB090141F00101596004E7F8
:1006A000304608F1080100F093FADBF80420FCE67C
:1006B00001210025D4E67B6823EA0E037B60D1E7A5
:1006C0004FEA4E0E09F10409D6E700BF10F0030F00
:1006D000034670B4C9B210D002B303788B421ED067
:1006E000013A013005E0CAB110F8014B013A8C42E1
:1006F00017D010F0030F0346F5D1032A13D86AB1BF
:10070000187888420DD0013A5C1C04E014F8015BB3
:10071000013A8D4203D02046002AF7D1104670BC22
:1007200070471846FBE741EA012646EA06461846A6
:1007300053F8044B86EA0404A4F1013525EA0404C5
:1007400014F0803F03D1043A1846032AEFD8034639
:10075000D5E700BF032A2DE9F00109D82AB100230B
:10076000CC5CC45401339342FAD1BDE8F001704728
:100770000B468218014603E02478013301F8014B4F
:1007800011F0030F1C46F7D113F003055DD06E4244
:10079000C5F1040CED009B594FEACC0C08E0043481
:1007A000A7593B4607FA0CF748EA070741F8047BCC
:1007B000571A23FA05F8032FF1DC03E014F8013B84
:1007C00001F8013B8A42F9D8CFE753F8404C41F891
:1007D000404C53F83C4C41F83C4C53F8384C41F8F1
:1007E000384C53F8344C41F8344C53F8304C41F801
:1007F000304C53F82C4C41F82C4C53F8284C41F811
:10080000284C53F8244C41F8244C53F8204C41F820
:10081000204C53F81C4C41F81C4C53F8184C41F830
:10082000184C53F8144C41F8144C53F8104C41F840
:10083000104C53F80C4C41F80C4C53F8084C41F850
:10084000084C53F8044C41F8044C561A1D460C460B
:10085000403340313F2EB8DC2B460FE053F8101CDC
:1008600044F8101C53F80C1C44F80C1C53F8081CDA
:1008700044F8081C53F8041C44F8041C161B1D46BD
:1008800010330F2E214604F11004E7DC2B4602E062
:10089000246841F8044B551A1C46032D03F1040348
:1008A000F6DC8FE7032AC9B270B408D82AB1034630
:1008B000121803F8011B9342FBD170BC70478218D9
:1008C000044601E004F8011B14F0030FFAD14FF0C5
:1008D000013303FB01F31FE044F8403C44F83C3C87
:1008E00044F8383C44F8343C44F8303C44F82C3C60
:1008F00044F8283C44F8243C44F8203C44F81C3C90
:1009000044F8183C44F8143C44F8103C44F80C3CBF
:1009100044F8083C44F8043C161B254640343F2E5E
:10092000DADC2C4607E044F8103C44F80C3C44F870
:10093000083C44F8043C161B254610340F2EF2DC0C
:1009400001E045F8043B541B032CFADC01E005F8F8
:10095000011B9542FBD3B0E7704700BF704700BF53
:1009600070B540F2F404C2F2000406462568AB6B91
:100970001BB100221E615A6170BD1820FFF7D8FB21
:1009800023684AF6CD3141F23422A86343F20E3097
:100990009B6B18804EF26D6059804DF6EC619A8029
:1009A0000522D8800B20198100215A8100229881CC
:1009B0000120C3E904011E615A6170BD70B540F2A7
:1009C000F404C2F200042568AE6BDEB130694FF268
:1009D0002D44756947F62D71C5F65104C4F695414D
:1009E0000122002304FB00F401FB0544A0FB0101EC
:1009F0001218214443EB0103C6E9042323F000410C
:100A0000084670BD1820FFF793FB246812A3D3E9B2
:100A100000234FF22D41C5F65101A86343F20E3079
:100A2000A66B41F234254AF6CD3430804EF26D602B
:100A300074804DF6EC64B5800525F0800B20348180
:100A4000012475810025B0810846C6E90445C6E940
:100A5000042370BDAFF300802E7F954C2DF45158C8
:100A60000246404240EA020221F0004141EAD272CD
:100A7000C2F1FE4202F57002504240EA0202D01773
:100A80000130704702464042104321F0004141EAE4
:100A9000D070C0F1FE4000F57000C00F704700BF7D
:100AA00038B541F64844C2F2000405460846002322
:100AB00023600FF043FCB0F1FF3F00D038BD236846
:100AC000002BFBD02B6038BD20F0030110F0030099
:100AD000C0F1000051F8043B00F1040C4FEACC0CCB
:100AE0006FF000021CBF22FA0CF213434FF0010C0E
:100AF0004CEA0C2C4CEA0C4CA3EB0C0222EA03024D
:100B000012EACC1204BF51F8043B0430F4D013F0C5
:100B1000FF0F1FBF013013F47F4F013013F47F0F1D
:100B200018BF0130704700BFF8B540F2E814C2F2B8
:100B300000040F460546FFF70FFFA3685E6826F026
:100B4000030606F57E630F33DF1B3F0B013F3F03B8
:100B5000B7F5805F07DB00212846FFF7A1FFA368F8
:100B60009B19984204D02846FFF7F8FE0020F8BDF4
:100B700079422846FFF794FFB0F1FF3F10D041F6CD
:100B80001443A168C2F20003F61B284646F0010692
:100B90001A684E60D71B1F60FFF7E0FE0120F8BD0A
:100BA00000212846FFF77CFFA368C21A0F2ADADD6E
:100BB00040F2F05441F61441C2F20004C2F20001C6
:100BC00042F001025A602368C01A0860CBE700BFF8
:100BD0002DE9F0410D460446002958D0FFF7BCFE30
:100BE000A5F1080240F2E8105668C2F2000026F0B3
:100BF0000103D0F808C0D1188C454F6827F00307CF
:100C000065D016F001064F6031D00026CD196D6811
:100C100015F0010F06D1DB19002E4BD08D68C96885
:100C2000E9608D6043F00101D3505160D6B9B3F54E
:100C3000007F2ED3590A04296BD89E093836F50057
:100C40004519A968A94203D169E089688D4204D099
:100C5000486820F003008342F7D3CB68D3609160EB
:100C6000CA609A602046BDE8F041FFF777BE55F8AC
:100C7000085C00F1080C521B5B199568654546D06D
:100C8000D2F80CC0C5F80CC0CCF80850BEE7BDE8DF
:100C9000F081DB080125466800EBC3019B1015FAC3
:100CA00003F3D1608D6846EA030343609560EA6010
:100CB0008A60D7E78D682B4FBD42B0D1EA6043F020
:100CC0000101AA60D56095605160D350CAE716F063
:100CD000010F3B4407D155F8081C521A5B18956860
:100CE000D168E9608D6040F2F45143F00105C2F231
:100CF0000001556082600A689342B3D341F6104305
:100D00002046C2F200031968FFF70EFFAAE701268A
:100D10007CE714290CD801F15B06F50090E701256A
:100D20004768B6100B46B54047EA0505456095E7AC
:100D3000542903D81E0B6E36F50081E7B1F5AA7F62
:100D400003D8DE0B7736F5007AE740F25455A94216
:100D500003D89E0C7C36F50072E74FF47C757E2636
:100D60006EE700BFF00100204A1E08BF7047C0F0C8
:100D70002481884240F21681114200F01781B0FAB6
:100D800080F3B1FA81F2A2EB0303C3F11F0304A2C3
:100D900002EB03134FF000029F4600BFAFF3008049
:100DA000B0EBC17F00BF42EB020228BFA0EBC170D5
:100DB000B0EB817F00BF42EB020228BFA0EB817045
:100DC000B0EB417F00BF42EB020228BFA0EB4170B5
:100DD000B0EB017F00BF42EB020228BFA0EB017025
:100DE000B0EBC16F00BF42EB020228BFA0EBC160B5
:100DF000B0EB816F00BF42EB020228BFA0EB816025
:100E0000B0EB416F00BF42EB020228BFA0EB416094
:100E1000B0EB016F00BF42EB020228BFA0EB016004
:100E2000B0EBC15F00BF42EB020228BFA0EBC15094
:100E3000B0EB815F00BF42EB020228BFA0EB815004
:100E4000B0EB415F00BF42EB020228BFA0EB415074
:100E5000B0EB015F00BF42EB020228BFA0EB0150E4
:100E6000B0EBC14F00BF42EB020228BFA0EBC14074
:100E7000B0EB814F00BF42EB020228BFA0EB8140E4
:100E8000B0EB414F00BF42EB020228BFA0EB414054
:100E9000B0EB014F00BF42EB020228BFA0EB0140C4
:100EA000B0EBC13F00BF42EB020228BFA0EBC13054
:100EB000B0EB813F00BF42EB020228BFA0EB8130C4
:100EC000B0EB413F00BF42EB020228BFA0EB413034
:100ED000B0EB013F00BF42EB020228BFA0EB0130A4
:100EE000B0EBC12F00BF42EB020228BFA0EBC12034
:100EF000B0EB812F00BF42EB020228BFA0EB8120A4
:100F0000B0EB412F00BF42EB020228BFA0EB412013
:100F1000B0EB012F00BF42EB020228BFA0EB012083
:100F2000B0EBC11F00BF42EB020228BFA0EBC11013
:100F3000B0EB811F00BF42EB020228BFA0EB811083
:100F4000B0EB411F00BF42EB020228BFA0EB4110F3
:100F5000B0EB011F00BF42EB020228BFA0EB011063
:100F6000B0EBC10F00BF42EB020228BFA0EBC100F3
:100F7000B0EB810F00BF42EB020228BFA0EB810063
:100F8000B0EB410F00BF42EB020228BFA0EB4100D3
:100F9000B0EB010F00BF42EB020228BFA0EB010043
:100FA000104670470CBF012000207047B1FA81F253
:100FB000C2F11F0220FA02F0704708B14FF0FF3073
:100FC00000F066B90029F8D02DE90340FFF7CCFE08
:100FD000BDE8064002FB00F3A1EB0301704700BF30
:100FE000002900F03E8180EA010C48BF49424A1EB8
:100FF00000F01F81030048BF43428B4240F21E8134
:10100000114200F02381B3FA83F2B1FA81F0A0EB30
:101010000202C2F11F0204A000EB02124FF0000016
:10102000974600BFAFF30080B3EBC17F00BF40EB3A
:10103000000028BFA3EBC173B3EB817F00BF40EB7F
:10104000000028BFA3EB8173B3EB417F00BF40EBEF
:10105000000028BFA3EB4173B3EB017F00BF40EB5F
:10106000000028BFA3EB0173B3EBC16F00BF40EBDF
:10107000000028BFA3EBC163B3EB816F00BF40EB5F
:10108000000028BFA3EB8163B3EB416F00BF40EBCF
:10109000000028BFA3EB4163B3EB016F00BF40EB3F
:1010A000000028BFA3EB0163B3EBC15F00BF40EBBF
:1010B000000028BFA3EBC153B3EB815F00BF40EB3F
:1010C000000028BFA3EB8153B3EB415F00BF40EBAF
:1010D000000028BFA3EB4153B3EB015F00BF40EB1F
:1010E000000028BFA3EB0153B3EBC14F00BF40EB9F
:1010F000000028BFA3EBC143B3EB814F00BF40EB1F
:10110000000028BFA3EB8143B3EB414F00BF40EB8E
:10111000000028BFA3EB4143B3EB014F00BF40EBFE
:10112000000028BFA3EB0143B3EBC13F00BF40EB7E
:10113000000028BFA3EBC133B3EB813F00BF40EBFE
:10114000000028BFA3EB8133B3EB413F00BF40EB6E
:10115000000028BFA3EB4133B3EB013F00BF40EBDE
:10116000000028BFA3EB0133B3EBC12F00BF40EB5E
:10117000000028BFA3EBC123B3EB812F00BF40EBDE
:10118000000028BFA3EB8123B3EB412F00BF40EB4E
:10119000000028BFA3EB4123B3EB012F00BF40EBBE
:1011A000000028BFA3EB0123B3EBC11F00BF40EB3E
:1011B000000028BFA3EBC113B3EB811F00BF40EBBE
:1011C000000028BFA3EB8113B3EB411F00BF40EB2E
:1011D000000028BFA3EB4113B3EB011F00BF40EB9E
:1011E000000028BFA3EB0113B3EBC10F00BF40EB1E
:1011F000000028BFA3EBC103B3EB810F00BF40EB9E
:10120000000028BFA3EB8103B3EB410F00BF40EB0D
:10121000000028BFA3EB4103B3EB010F00BF40EB7D
:10122000000028BFA3EB0103BCF1000F48BF404200
:1012300070479CEA000F48BF4042704738BF00200B
:1012400004BF4FEAEC7040F001007047B1FA81F240
:10125000C2F11F02BCF1000F23FA02F048BF404266
:1012600070470028C8BF6FF00040B8BF4FF0004083
:1012700000F00EB80029F4D02DE90340FFF7B3FECB
:10128000BDE8064002FB00F3A1EB0301704700BF7D
:10129000704700BF81F0004102E000BF83F00043CF
:1012A00030B54FEA41044FEA430594EA050F08BF01
:1012B00090EA020F1FBF54EA000C55EA020C7FEAC5
:1012C000645C7FEA655C00F0E2804FEA5454D4EB42
:1012D0005555B8BF6D420CDD2C4480EA020281EA0C
:1012E000030382EA000083EA010180EA020281EA44
:1012F0000303362D88BF30BD11F0004F4FEA013196
:101300004FF4801C4CEA113102D0404261EB4101A4
:1013100013F0004F4FEA03334CEA133302D052422A
:1013200063EB430394EA050F00F0A780A4F10104E6
:10133000D5F1200E0DDB02FA0EFC22FA05F2801820
:1013400041F1000103FA0EF2801843FA05F3594106
:101350000EE0A5F120050EF1200E012A03FA0EFC85
:1013600028BF4CF0020C43FA05F3C01851EBE371AF
:1013700001F0004507D54FF0000EDCF1000C7EEBCC
:1013800000006EEB0101B1F5801F1BD3B1F5001F0A
:101390000CD349085FEA30004FEA3C0C04F1010429
:1013A0004FEA445212F5800F80F09A80BCF1004F52
:1013B00008BF5FEA500C50F1000041EB045141EAD4
:1013C000050130BD5FEA4C0C404141EB010111F4D5
:1013D000801FA4F10104E9D191F0000F04BF014680
:1013E0000020B1FA81F308BF2033A3F10B03B3F15E
:1013F00020020CDA0C3208DD02F1140CC2F10C02EE
:1014000001FA0CF021FA02F10CE002F11402D8BF4B
:10141000C2F1200C01FA02F120FA0CFCDCBF41EA17
:101420000C019040E41AA2BF01EB0451294330BDE6
:101430006FEA04041F3C1CDA0C340EDC04F11404C3
:10144000C4F1200220FA04F001FA02F340EA03009A
:1014500021FA04F345EA030130BDC4F10C04C4F1E0
:10146000200220FA02F001FA04F340EA03002946C0
:1014700030BD21FA04F0294630BD94F0000F83F40A
:10148000801306BF81F480110134013D4EE77FEAED
:10149000645C18BF7FEA655C29D094EA050F08BF39
:1014A00090EA020F05D054EA000C04BF194610461A
:1014B00030BD91EA030F1EBF0021002030BD5FEA5E
:1014C000545C05D14000494128BF41F0004130BD86
:1014D00014F580043CBF01F5801130BD01F00045DA
:1014E00045F0FE4141F470014FF0000030BD7FEA4D
:1014F000645C1ABF194610467FEA655C1CBF0B4648
:10150000024650EA013406BF52EA033591EA030F5E
:1015100041F4002130BD00BF90F0000F04BF002156
:10152000704730B54FF4806404F132044FF0000589
:101530004FF0000150E700BF90F0000F04BF002102
:10154000704730B54FF4806404F1320410F0004568
:1015500048BF40424FF000013EE700BF42004FEA63
:10156000E2014FEA31014FEA02701FBF12F07F43E0
:1015700093F07F4F81F06051704792F0000F14BFDD
:1015800093F07F4F704730B54FF4607401F0004521
:1015900021F0004120E700BF50EA010208BF704778
:1015A00030B54FF000050AE050EA010208BF70476D
:1015B00030B511F0004502D5404261EB41014FF4D6
:1015C000806404F132045FEA915C3FF4DCAE4FF0DA
:1015D00003025FEADC0C18BF03325FEADC0C18BFC1
:1015E000033202EBDC02C2F1200300FA03FC20FA12
:1015F00002F001FA03FE40EA0E0021FA02F114445F
:10160000C1E600BF70B54FF0FF0C4CF4E06C1CEA73
:1016100011541DBF1CEA135594EA0C0F95EA0C0FE8
:1016200000F0DEF82C4481EA030621EA4C5123EA5B
:101630004C5350EA013518BF52EA033541F480118A
:1016400043F4801338D0A0FB02CE4FF00005E1FB3D
:1016500002E506F00042E0FB03E54FF00006E1FB87
:1016600003569CF0000F18BF4EF0010EA4F1FF04CA
:10167000B6F5007F64F5407404D25FEA4E0E6D410A
:1016800046EB060642EAC62141EA55514FEAC5201B
:1016900040EA5E504FEACE2EB4F1FD0C88BFBCF597
:1016A000E06F1ED8BEF1004F08BF5FEA500E50F148
:1016B000000041EB045170BD06F0004646EA01010E
:1016C00040EA020081EA0301B4EB5C04C2BFD4EB40
:1016D0000C0541EA045170BD41F480114FF0000E39
:1016E000013C00F3AB8014F1360FDEBF002001F0A7
:1016F000004170BDC4F10004203C35DA0C341BDC21
:1017000004F11404C4F1200500FA05F320FA04F0F2
:1017100001FA05F240EA020001F0004221F0004126
:1017200010EBD37021FA04F642EB06015EEA430E99
:1017300008BF20EAD37070BDC4F10C04C4F12005C9
:1017400000FA04F320FA05F001FA04F240EA02007C
:1017500001F0004110EBD37041F100015EEA430E4D
:1017600008BF20EAD37070BDC4F1200500FA05F26D
:101770004EEA020E20FA04F301FA05F243EA0203EC
:1017800021FA04F001F0004121FA04F220EA0200FB
:1017900000EBD3705EEA430E08BF20EAD37070BD41
:1017A00094F0000F0FD101F00046400041EB010121
:1017B00011F4801F08BF013CF7D041EA060195F003
:1017C000000F18BF704703F00046520043EB0303BD
:1017D00013F4801F08BF013DF7D043EA06037047AA
:1017E00094EA0C0F0CEA135518BF95EA0C0F0CD0B5
:1017F00050EA410618BF52EA4306D1D181EA0301FB
:1018000001F000414FF0000070BD50EA410606BFF4
:101810001046194652EA430619D094EA0C0F02D139
:1018200050EA013613D195EA0C0F05D152EA03367E
:101830001CBF104619460AD181EA030101F000419C
:1018400041F0FE4141F470014FF0000070BD41F0E5
:10185000FE4141F4780170BD70B54FF0FF0C4CF4BF
:10186000E06C1CEA11541DBF1CEA135594EA0C0FDE
:1018700095EA0C0F00F0A7F8A4EB050481EA030E2B
:1018800052EA03354FEA013100F088804FEA033312
:101890004FF0805545EA131343EA12634FEA0222E0
:1018A00045EA111545EA10654FEA00260EF00041A1
:1018B0009D4208BF964244F1FD0404F5407402D2F3
:1018C0005B084FEA3202B61A65EB03055B084FEA84
:1018D00032024FF480104FF4002CB6EB020E75EB81
:1018E000030E22BFB61A754640EA0C005B084FEAA9
:1018F0003202B6EB020E75EB030E22BFB61A754626
:1019000040EA5C005B084FEA3202B6EB020E75EB70
:10191000030E22BFB61A754640EA9C005B084FEAE8
:101920003202B6EB020E75EB030E22BFB61A7546F5
:1019300040EADC0055EA060E18D04FEA051545EAE4
:1019400016754FEA06164FEAC30343EA52734FEA8D
:10195000C2025FEA1C1CC0D111F4801F0BD141EA06
:1019600000014FF000004FF0004CB6E711F4801F6B
:1019700004BF01430020B4F1FD0C88BFBCF5E06F4B
:101980003FF6AFAEB5EB030C04BFB6EB020C5FEA5B
:10199000500C50F1000041EB045170BD0EF0004EB0
:1019A0004EEA113114EB5C04C2BFD4EB0C0541EAE2
:1019B000045170BD41F480114FF0000E013C90E6DF
:1019C00045EA060E8DE60CEA135594EA0C0F08BFA3
:1019D00095EA0C0F3FF43BAF94EA0C0F0AD150EAA2
:1019E00001347FF434AF95EA0C0F7FF425AF104635
:1019F00019462CE795EA0C0F06D152EA03353FF45D
:101A0000FDAE1046194622E750EA410618BF52EAD9
:101A100043067FF4C5AE50EA41047FF40DAF52EAAD
:101A200043057FF4EBAE12E74FF0FF3C06E000BF4A
:101A30004FF0010C02E000BF4FF0010C4DF804CD57
:101A40004FEA410C7FEA6C5C4FEA430C18BF7FEA17
:101A50006C5C1BD001B050EA410C0CBF52EA430C45
:101A600091EA030F02BF90EA020F0020704710F1C5
:101A7000000F91EA030F58BF994208BF90422CBF54
:101A8000D8176FEAE37040F0010070474FEA410C4D
:101A90007FEA6C5C02D150EA013C07D14FEA430C6B
:101AA0007FEA6C5CD6D152EA033CD3D05DF8040BDC
:101AB000704700BF8446104662468C46194663460E
:101AC00000E000BF01B5FFF7B7FF002848BF10F1E5
:101AD000000F01BD4DF808EDFFF7F4FF0CBF01202A
:101AE00000205DF808FB00BF4DF808EDFFF7EAFFA6
:101AF00034BF012000205DF808FB00BF4DF808ED61
:101B0000FFF7E0FF94BF012000205DF808FB00BF55
:101B10004DF808EDFFF7CEFF94BF012000205DF8DF
:101B200008FB00BF4DF808EDFFF7C4FF34BF0120EC
:101B300000205DF808FB00BF4FEA410212F50012D9
:101B400015D211D56FF47873B3EB625212D94FEA04
:101B5000C12343F0004343EA505311F0004F23FAEE
:101B600002F018BF404270474FF00000704750EA43
:101B7000013005D111F0004008BF6FF00040704700
:101B80004FF00000704700BF4FEA4102B2F1E0435E
:101B900024BFB3F5001CDCF1FE5C0DD901F0004C54
:101BA0004FEAC0024CEA5070B2F1004F40EB8300A4
:101BB00008BF20F00100704711F0804F21D113F1D0
:101BC0003872BCBF01F00040704741F480114FEA09
:101BD0005252C2F11802C2F1200C10FA0CF320FA92
:101BE00002F018BF40F001004FEAC1234FEAD323AF
:101BF00003FA0CFC40EA0C0023FA02F34FEA430319
:101C0000CCE77FEA625307D150EA01331EBF4FF0A1
:101C1000FE4040F44000704701F0004040F0FE40BC
:101C200040F40000704700BF80F0004002E000BFB9
:101C300081F0004142001FBF5FEA410392EA030FB7
:101C40007FEA226C7FEA236C6AD04FEA1262D2EB01
:101C50001363C1BFD218414048404140B8BF5B4206
:101C6000192B88BF704710F0004F40F4000020F09F
:101C70007F4018BF404211F0004F41F4000121F0B5
:101C80007F4118BF494292EA030F3FD0A2F10102FF
:101C900041FA03FC10EB0C00C3F1200301FA03F13D
:101CA00000F0004302D5494260EB4000B0F5000F60
:101CB00013D3B0F1807F06D340084FEA310102F11F
:101CC0000102FE2A51D2B1F1004F40EBC25008BFD1
:101CD00020F0010040EA03007047490040EB00009B
:101CE00010F4000FA2F10102EDD1B0FA80FCACF1CA
:101CF000080CB2EB0C0200FA0CF0AABF00EBC250C9
:101D000052421843BCBFD0401843704792F0000FB6
:101D100081F4000106BF80F400000132013BB5E709
:101D20004FEA41037FEA226C18BF7FEA236C21D07F
:101D300092EA030F04D092F0000F08BF08467047E4
:101D400090EA010F1CBF0020704712F07F4F04D1B2
:101D5000400028BF40F00040704712F100723CBFC5
:101D600000F50000704700F0004343F0FE4040F4EF
:101D7000000070477FEA226216BF08467FEA2363AD
:101D80000146420206BF5FEA412390EA010F40F498
:101D9000800070474FF0000304E000BF10F00043E4
:101DA00048BF40425FEA000C08BF704743F09643CB
:101DB00001464FF000001CE050EA010208BF7047E6
:101DC0004FF000030AE000BF50EA010208BF70476D
:101DD00011F0004302D5404261EB41015FEA010C82
:101DE00002BF84460146002043F0B64308BFA3F17A
:101DF0008053A3F50003BCFA8CF2083AA3EBC2535C
:101E000010DB01FA02FC634400FA02FCC2F120027A
:101E1000BCF1004F20FA02F243EB020008BF20F0B1
:101E20000100704702F1200201FA02FCC2F1200217
:101E300050EA4C0021FA02F243EB020008BF20EA0C
:101E4000DC7070474FF0FF0C1CEAD0521EBF1CEA3A
:101E5000D15392EA0C0F93EA0C0F6FD01A4480EA28
:101E6000010C400218BF5FEA41211ED04FF0006311
:101E700043EA501043EA5111A0FB01310CF000403D
:101E8000B1F5000F3EBF490041EAD3715B0040EA63
:101E9000010062F17F02FD2A1DD8B3F1004F40EB33
:101EA000C25008BF20F00100704790F0000F0CF006
:101EB000004C08BF49024CEA502040EA51207F3ACA
:101EC000C2BFD2F1FF0340EAC250704740F40000A5
:101ED0004FF00003013A5DDC12F1190FDCBF00F096
:101EE00000407047C2F10002410021FA02F1C2F144
:101EF000200200FA02FC5FEA310040F1000053EAE0
:101F00004C0308BF20EADC70704792F0000F00F02D
:101F1000004C02BF400010F4000F013AF9D040EA33
:101F20000C0093F0000F01F0004C02BF490011F4C7
:101F3000000F013BF9D041EA0C018FE70CEAD153C5
:101F400092EA0C0F18BF93EA0C0F0AD030F0004C45
:101F500018BF31F0004CD8D180EA010000F00040F9
:101F6000704790F0000F17BF90F0004F084691F0B7
:101F7000000F91F0004F14D092EA0C0F01D14202F1
:101F80000FD193EA0C0F03D14B0218BF084608D1BA
:101F900080EA010000F0004040F0FE4040F4000004
:101FA000704740F0FE4040F4400070474FF0FF0C97
:101FB0001CEAD0521EBF1CEAD15392EA0C0F93EADE
:101FC0000C0F69D0A2EB030280EA010C49024FEA30
:101FD000402037D04FF0805343EA111143EA1013E9
:101FE0000CF000408B4238BF5B0042F17D024FF4A1
:101FF000000C8B4224BF5B1A40EA0C00B3EB510F7C
:1020000024BFA3EB510340EA5C00B3EB910F24BF64
:10201000A3EB910340EA9C00B3EBD10F24BFA3EBE9
:10202000D10340EADC001B0118BF5FEA1C1CE0D1B1
:10203000FD2A3FF650AF8B4240EBC25008BF20F064
:10204000010070470CF0004C4CEA50207F32C2BFB8
:10205000D2F1FF0340EAC250704740F400004FF055
:102060000003013A37E792F0000F00F0004C02BF86
:10207000400010F4000F013AF9D040EA0C0093F050
:10208000000F01F0004C02BF490011F4000F013BAA
:10209000F9D041EA0C0195E70CEAD15392EA0C0F12
:1020A00008D142027FF47DAF93EA0C0F7FF470AF4A
:1020B000084676E793EA0C0F04D14B023FF44CAF8D
:1020C00008466EE730F0004C18BF31F0004CCAD122
:1020D00030F000427FF45CAF31F000437FF43CAF5E
:1020E0005FE700BF4FF0FF3C06E000BF4FF0010C80
:1020F00002E000BF4FF0010C4DF804CD4FEA400262
:102100004FEA41037FEA226C18BF7FEA236C11D0AB
:1021100001B052EA530C18BF90EA010F58BFB2EB5E
:10212000030088BFC81738BF6FEAE17018BF40F0DE
:10213000010070477FEA226C02D15FEA402C05D192
:102140007FEA236CE4D15FEA412CE1D05DF8040B17
:10215000704700BF844608466146FFE70FB5FFF7AA
:10216000C9FF002848BF10F1000F0FBD4DF808ED62
:10217000FFF7F4FF0CBF012000205DF808FB00BF53
:102180004DF808EDFFF7EAFF34BF012000205DF8AD
:1021900008FB00BF4DF808EDFFF7E0FF94BF0120FA
:1021A00000205DF808FB00BF4DF808EDFFF7D2FFF7
:1021B00094BF012000205DF808FB00BF4DF808ED3A
:1021C000FFF7C8FF34BF012000205DF808FB00BF07
:1021D00042000ED2B2F1FE4F0BD34FF09E03B3EB91
:1021E000126209D44FEA002343F0004323FA02F0BD
:1021F00070474FF00000704712F1610F01D14202A9
:1022000002D14FF0FF3070474FF00000704700BF21
:1022100073B96AB9002908BF0028BCBF00204FF07D
:102220000041C4BF6FF000414FF0FF30FFF730B8FE
:1022300082B0EC462DE9005000F006F8DDF804E02D
:1022400002B00CBC704700BF2DE9704316468046B3
:1022500089461D4600F028F800FB05F3A0FB064563
:1022600006FB0136069B7519B8EB040469EB0505FE
:10227000C3E90045BDE870832DE9704316468046EA
:1022800089461D4600F0C2F900FB05F3A0FB064598
:1022900006FB0136069B7519B8EB040469EB0505CE
:1022A000C3E90045BDE8708300292DE9F04F1C46C5
:1022B00085B0C0F2CB800026002CC0F2C2808C46D4
:1022C00017461446054688469A46002B49D18A424D
:1022D0006DD9B2FA82F353B1C3F1200001FA03F8C9
:1022E00035FA00F217FA03F442EA08089D404FEA73
:1022F000144A404651461FFA84FBFEF735FD51460D
:102300002F0C81464046FEF75DFE0BFB09F347EAC2
:102310000148434509D918EB040809F1FF3904D2F3
:10232000434584BF09F1FF39A044C3EB0808514677
:102330004046ADB2FEF718FD514607464046FEF74F
:1023400041FE0BFB07FB45EA0145AB4505D9013FC3
:102350002D1902D2AB4588BF013F47EA0949002445
:1023600003E08B420CD90024A1464A46234616B10D
:10237000524263EB43031046194605B0BDE8F08FA7
:10238000B3FA83F4002C40F0B4808B424FF0010983
:102390002CBF4FF0000C4FF0010C82428CBF6746FF
:1023A0004CF00107002FE0D13C46B946DDE722B9E9
:1023B00001201146FEF7D8FC0446B4FA84F3002B42
:1023C0004AD1C4EB0808270C1FFA84FA01210291B4
:1023D00039464046FEF7C8FC39464FEA154B814660
:1023E0004046FEF7EFFD0AFB09F34BEA014B5B4564
:1023F00009D91BEB040B09F1FF3904D25B4584BFFB
:1024000009F1FF39A344C3EB0B0B39465846ADB273
:10241000FEF7AAFC394680465846FEF7D3FD0AFB74
:1024200008FA45EA0145AA4507D92D1908F1FF38F0
:1024300003D2AA4588BF08F1FF3848EA0949029C3F
:1024400093E7F643524263EB430338E7404261EBC4
:1024500041014FF0FF362FE79C40C3F1200028FADE
:1024600000FA08FA03FB270C35FA00F23946504609
:1024700042EA0B029D400292FEF776FC3946834603
:102480005046FEF79FFD029B1FFA84FA4FEA13495C
:102490000AFB0BF349EA0148434505D918EB040848
:1024A0000BF1FF3BC0F0AB80C3EB08083946404658
:1024B000FEF75AFC394681464046FEF783FD029AF4
:1024C0000AFB09F31FFA82FC4CEA0148434509D98B
:1024D00018EB040809F1FF3904D2434584BF09F120
:1024E000FF39A04449EA0B4EC3EB0808CDF808E0D9
:1024F0006EE7C4F1200003FA04FA32FA00F321FA7D
:1025000000F843EA0A0A35FA00F201FA04F94046F3
:102510004FEA1A4B42EA09010391594617FA04F3AC
:102520000293FEF721FC594681464046FEF74AFDDC
:102530001FFA8AF3039803FB09F2070C47EA0148E4
:10254000424504D918EB0A0809F1FF3951D3C2EB0F
:102550000808594640460193FEF706FC59460746CF
:102560004046FEF72FFD0198039A00FB07F31FFA80
:1025700082FC4CEA014C634507D9013F1CEB0A0C75
:1025800003D2634501D9013FD44447EA0949029F78
:10259000C3EB0C031FFA89FE4FEA1940B9B23F0C96
:1025A00001FB0EF801FB00F107FB0E1207FB00FC1C
:1025B00002EB1842914288BF0CF5803C0CEB124EA6
:1025C000734512D34FEA02421FFA88F814BF002362
:1025D000012302EB080C15FA04F464452CBF002417
:1025E00003F00104002C3FF4C0AE09F1FF390024D0
:1025F000BBE6424584BF09F1FF39D044A7E7434514
:1026000084BF0BF1FF3BA0444EE700BF2DE9F04F24
:10261000054683B00C46174680460E46002B4FD128
:102620008A4263D9B2FA82F353B1C3F1200011FA9E
:1026300003F635FA00F29F4042EA060605FA03F86F
:102640003C0C304621461FFA87FAFEF78DFB2146E7
:102650004FEA184581463046FEF7B4FC0AFB09F301
:1026600045EA0146B34208D9F61909F1FF3904D207
:10267000B34284BF09F1FF39F619F61A21463046F4
:102680001FFA88F8FEF770FB214605463046FEF734
:1026900099FC0AFB05FA48EA0148C24506D9013D02
:1026A00018EB070802D2C24588BF013D45EA094A36
:1026B00000263146D046B146504603B0BDE8F08F03
:1026C0008B425BD8B3FA83F6002E5AD18B424FF07F
:1026D000010A2CBF0024012482428CBF254644F00D
:1026E0000105002DE5D12E46AA46E2E722B90120D8
:1026F0001146FEF739FB0746B7FA87F3002B40F087
:10270000BB80E41B4FEA174BBDB201265946204659
:10271000FEF72AFB594682462046FEF753FC4FEA55
:10272000184C05FB0AF34CEA0144A34208D9E4190A
:102730000AF1FF3A04D2A34284BF0AF1FF3AE41936
:10274000E41A59462046FEF70FFB594681462046BB
:10275000FEF738FC1FFA88F305FB09F543EA014848
:10276000454508D918EB070809F1FF3903D245455B
:1027700088BF09F1FF3949EA0A4A9AE70026B246BA
:1027800097E7C6F1200013FA06F132FA00F735FA9E
:1027900000F30F4324FA00FBB44058464FEA1748B1
:1027A00043EA04010191414612FA06F40094FEF74F
:1027B000DBFA4146BCB282465846FEF703FC019A5A
:1027C00004FB0AF34FEA124B4BEA014B5B4505D978
:1027D0001BEB070B0AF1FF3AC0F09680C3EB0B0B23
:1027E00041465846FEF7C0FA414681465846FEF734
:1027F000E9FB019A04FB09F41FFA82F848EA014355
:102800009C4203D9DB1909F1FF3977D3009F49EACC
:102810000A4A1C1B1FFA8AF11FFA87F83A0C4FEA82
:102820001A4708FB01FC08FB07F302FB013002FB1F
:1028300007F900EB1C418B4288BF09F5803909EB91
:10284000114E744514D34FEA01491FFA8CF314BF9B
:102850004FF0000E4FF0010E09EB030C15FA06F6CF
:1028600066452CBF00260EF00106002E3FF421AF76
:102870000AF1FF3A00261CE79F40C3F1200924FA21
:1028800009F614FA03F24FEA174B25FA09FA5946EA
:10289000304605FA03F84AEA020AFEF765FA594695
:1028A000BDB24FEA1A4481463046FEF78BFB05FB6A
:1028B00009F344EA0144A34203D9E41909F1FF39B9
:1028C00028D3E41A59462046FEF74EFA59460646E2
:1028D0002046FEF777FB1FFA8AF005FB06F340EA75
:1028E0000144A34206D9013EE41903D2A34201D90F
:1028F000013EE419E41A46EA094607E79C4284BF10
:1029000009F1FF39DB1981E75B4584BF0AF1FF3A22
:10291000BB4463E7A34284BF09F1FF39E419D0E760
:10292000684620F007018D462DE9F14FADF5287D71
:1029300012AF40F69C63C0F60103C7F8503240F274
:102940000003C2F20003C7F84C3211E0D7F850324E
:102950001A68D7F84C321A60D7F84C3203F10403E6
:10296000C7F84C32D7F8503203F10403C7F850329D
:10297000D7F84C2240F2F853C2F200039A422CBF1F
:1029800000230123DBB2002BE0D140F2F853C2F266
:102990000003C7F84C320AE0D7F84C324FF000027F
:1029A0001A60D7F84C3203F10403C7F84C32D7F859
:1029B0004C2241F64C43C2F200039A422CBF002342
:1029C0000123DBB2002BE7D140F2F853C2F200033F
:1029D0004FF000021A7040F2FC53C2F200034FF0B5
:1029E00000021A6040F20063C2F200034FF00002DE
:1029F0001A7040F20463C2F200034FF000021A6042
:102A000040F20863C2F200034FF000021A6040F285
:102A10000C63C2F200034FF000021A7040F20D6323
:102A2000C2F200034FF000021A7040F21063C2F2CB
:102A300000034FF0FF021A6040F21463C2F2000379
:102A40004FF0FF021A7040F21563C2F200034FF01C
:102A500000021A704FF00003C7F8543219E040F634
:102A6000E823C2F20003D7F854229B184FF07F02EC
:102A70001A7040F6F423C2F20003D7F854229B18D0
:102A80004FF07F021A70D7F8543203F10103C7F8F0
:102A90005432D7F854320B2BCCBF00230123DBB2C6
:102AA000002BDCD140F6E823C2F200034FF0000215
:102AB000DA7140F6E823C2F200034FF000021A7206
:102AC00040F6F423C2F200034FF00002DA7140F640
:102AD000F423C2F200034FF000021A7204F058F916
:102AE00000F05AFF02F064FC40F2F853C2F2000317
:102AF0004FF001021A7001F06FFB0346002B0CBF70
:102B000000230123DBB2002B00F0A5824FF0C800A8
:102B100001F0BAFD07F0C2FF4FF0200001F01EFAED
:102B20000346002B09D040F20063C2F200031B7879
:102B3000002B02D14FF0010301E04FF00003002B06
:102B400064D040F6E823C2F200031B784FF0010086
:102B5000194605F07BF940F6E823C2F200035B78E2
:102B60004FF00200194605F071F940F6E823C2F271
:102B700000039B784FF00300194605F067F940F613
:102B8000E823C2F20003DB784FF00400194605F099
:102B90005DF940F6E823C2F200031B794FF005000F
:102BA000194605F053F940F6F423C2F200031B78EE
:102BB0004FF00600194605F049F940F6F423C2F239
:102BC00000035B784FF00700194605F03FF940F627
:102BD000F423C2F200039B784FF00800194605F079
:102BE00035F940F6F423C2F20003DB784FF0090018
:102BF000194605F02BF940F6F423C2F200031B79C5
:102C00004FF00A00194605F021F99AE74FF00A0043
:102C100001F03AFD40F21563C2F200031B78002B6D
:102C20000CD04FF47A7001F02FFD40F21563C2F220
:102C300000034FF000021A7007F030FF4FF032002F
:102C400001F022FD4FF00003C7F8483207F13C02C3
:102C500040F20C43C0F601031B88138002F102020C
:102C60004FF4FF7310464FF000011A46FDF71AFEAD
:102C70004FF00003C7F848323BE0D7F84832DBB2E8
:102C800003F10103DBB2184604F0ECF80346002B15
:102C900014BF00230123DBB2002B13D0D7F8483236
:102CA000DBB203F10103DBB2184604F0F1FA03468C
:102CB00003F10303DAB207F50F71D7F84832CB18E6
:102CC0001A7010E0D7F84832DBB203F10103DBB22F
:102CD000184604F01FFA03461A4607F50F71D7F895
:102CE0004832CB181A70D7F8483203F10103C7F8FD
:102CF0004832D7F848320B2BCCBF00230123DBB27C
:102D0000002BBAD197F83C321E4697F83D321D464B
:102D100097F83E32184697F83F321C4697F84032F3
:102D20007B6397F841323B6397F84232FB6297F836
:102D300043329B4697F844329A4697F84532994673
:102D400097F84632984697F847329C4640F64C032F
:102D5000C2F200031B681B799E4640F64C03C2F288
:102D600000031B685B79194640F20063C2F200035E
:102D70001B781A4607F13C0300900194786B02908F
:102D8000386B0390F86A0490CDF814B0CDF818A011
:102D9000CDF81C90CDF82080CDF824C0CDF828E0E7
:102DA0000B910C92184640F26C31C0F6010132468C
:102DB0002B460BF081FE4FF00003C7F8483207F1B5
:102DC0003C02D7F84832D3181B78002B49D14FF07A
:102DD0000D0006F0DFF84FF0320001F055FC4FF027
:102DE000010004F0CFF905464FF0020004F0CAF9E3
:102DF00004464FF0030004F0C5F983464FF0040089
:102E000004F0C0F982464FF0050004F0BBF981469A
:102E10004FF0060004F0B6F980464FF0070004F0CA
:102E2000B1F906464FF0080004F0ACF9024607F18C
:102E30003C03CDF800B0CDF804A0CDF80890CDF853
:102E40000C8004960592184640F2A031C0F60101AC
:102E50002A4623460BF030FE4FF00003C7F84832F5
:102E600010E007F13C02D7F84832D3181B785BB268
:102E7000D7F8482202F10102C7F84822184606F0A6
:102E800089F89CE707F13C02D7F84832D3181B7841
:102E9000002B40F0B1804FF00D0006F07BF84FF0B2
:102EA000320001F0F1FB41F2C013C2F200031B68D3
:102EB000BB6241F2C013C2F200039B687B6241F225
:102EC000C013C2F20003D3F810E041F2C013C2F203
:102ED0000003D3F818C041F2C013C2F20003D3F8C4
:102EE000208041F2C013C2F20003D3F8289041F2CF
:102EF000C013C2F20003D3F830B041F2C013C2F2E3
:102F000000039B6B3B6241F2C013C2F200031B6CD7
:102F1000FB6141F2C013C2F200039B6CBB6141F242
:102F2000C013C2F200039B887B6141F2C013C2F25E
:102F300000039B893B6141F2C013C2F200039B8AEC
:102F4000FB6041F2C013C2F200039B8B9A4641F230
:102F5000C013C2F200039B8C1E4641F2C013C2F2A2
:102F600000039B8D1D4641F2C013C2F200039B8EED
:102F70001C4641F2C013C2F200039B8F184641F277
:102F8000C013C2F20003B3F84430194641F2C01333
:102F9000C2F20003B3F84C301A4607F13C037B60E1
:102FA000CDF800E0CDF804C0CDF80880CDF80C9045
:102FB000CDF810B03B6A0593FB690693BB69079394
:102FC0007B6908933B690993FB680A93CDF82CA0B1
:102FD0000C960D950E940F9010911192786840F216
:102FE000C031C0F60101BA6A7B6A0BF065FD4FF093
:102FF0000003C7F8483210E007F13C02D7F8483226
:10300000D3181B785BB2D7F8482202F10102C7F847
:103010004822184605F0BEFF34E707F13C02D7F816
:103020004832D3181B78002B04D14FF00D0005F067
:10303000B1FFEBE507F13C02D7F84832D3181B7813
:103040005BB2D7F8482202F10102C7F848221846BD
:1030500005F0A0FFE1E740F2FC53C2F200031B6859
:10306000002B23D140F20463C2F200031B68002B43
:103070001CD14FF0C80001F007FB03E04FF06400E3
:1030800001F002FB40F64C03C2F200031B689B7880
:10309000082B0CBF00230123DBB2002BEED14FF035
:1030A000640001F0F1FA00F0CBFA01E000F002F860
:1030B000FEE700BF80B584B000AF40F20863C2F203
:1030C00000034FF000021A6040F21063C2F20003E6
:1030D0004FF0FF021A6001F0FBF84FF0C80001F05A
:1030E000D3FA03E04FF0640001F0CEFA40F64C034F
:1030F000C2F200031B689B78082B0CBF002301233E
:10310000DBB2002BEED14FF00003FB603BE0FB682D
:1031100003F16403FB60FA6844F6D353C1F262031F
:1031200083FB02134FEAE3114FEAE273CB1A4FF429
:10313000FA6101FB03F3D31A002B14BF0023012310
:10314000DBB2002B1BD040F2FC53C2F200031A6822
:1031500040F20463C2F200031B6840F20C60C0F648
:10316000010011461A4605F011F94FF0320001F046
:103170008BFA40F22860C0F6010005F007F94FF025
:10318000640001F081FA40F2FC53C2F200031B68B4
:10319000B3F1FF3F12D040F20463C2F200031B6898
:1031A000B3F1FF3F0AD040F64C03C2F200031B68A4
:1031B000DB78002B02D14FF0010301E04FF0000358
:1031C000002BA4D140F64C03C2F200031B68DB784D
:1031D00003F00803002B0DD040F2FC53C2F20003B1
:1031E0004FF0FF321A6040F20463C2F200034FF066
:1031F000FF321A6040F2FC53C2F200031B68B3F1C5
:10320000FF3F41D140F24060C0F6010005F0BEF83A
:1032100040F20D63C2F200034FF001021A7000F099
:1032200067FE40F20D63C2F200034FF000021A7015
:1032300003E04FF0640001F027FA00F0E1FE0346DE
:10324000002B14BF00230123DBB2002BF1D101F0CE
:10325000D5F903461A4640F20863C2F200031A6029
:1032600000F0ACFE0346002B0CBF00230123DBB2B1
:10327000002B04D04FF0000000F040FE03E04FF0C0
:10328000000000F045FEFEE700F0CAFE0346002BFA
:103290000CBF00230123DBB2002B00F0CB8140F2F6
:1032A000FC53C2F200031B68002B06D140F2FC5312
:1032B000C2F200034FF001021A6000F0A1FE0346C3
:1032C000002B14BF00230123DBB2002B43D04FF0AF
:1032D0000003BB6000E000BF4FF0640001F0D4F9D0
:1032E00040F64C03C2F200031B68DB7803F00803CE
:1032F000002B03D04FF0060000F044FEBB6803F142
:103300006403BB60BA6844F6D353C1F2620383FB23
:1033100002134FEAE3114FEAE273CB1A4FF4FA615A
:1033200001FB03F3D31A002B14BF00230123DBB2EC
:10333000002BD0D040F26860C0F6010005F026F8FE
:103340004FF0320001F0A0F940F28C60C0F60100AD
:1033500005F01CF8C0E700F031FE0346002B0CBF5F
:1033600000230123DBB2002B00F017814FF0000394
:103370007B608DE04FF0640001F086F940F64C036D
:10338000C2F200031B68DB7803F00803002B25D092
:1033900040F64C03C2F200031B68DB7823F07F0386
:1033A000DBB24FF00200194600F0BCFD40F64C03C2
:1033B000C2F200031B68DB7803F04003002B02D04D
:1033C0004FF0010301E04FF000034FF001001946F8
:1033D00000F0A8FD4FF00B0000F0D4FD7B6803F176
:1033E00064037B607A6844F6D353C1F2620383FBC3
:1033F00002134FEAE3114FEAE273CB1A4FF4FA617A
:1034000001FB03F3D31A002B14BF00230123DBB20B
:10341000002B3DD040F2FC53C2F200031A6840F288
:103420000463C2F200031B6840F20C60C0F60100A6
:1034300011461A4604F0AAFF4FF0320001F024F9B9
:1034400040F2FC53C2F200031A6840F20463C2F275
:1034500000031B6840F2AC60C0F6010011461A463A
:1034600004F094FF4FF0320001F00EF940F2FC53EB
:10347000C2F200031A6840F20463C2F200031B6840
:1034800040F2E060C0F6010011461A4604F07EFFEB
:1034900040F64C03C2F200031B68DB7803F0010323
:1034A000002B09D140F64C03C2F200031B68DB7805
:1034B00003F00203002B26D040F20C63C2F200039B
:1034C0001B78002B22D140F64C03C2F200031B688C
:1034D0005B7B002B1AD140F64C03C2F200031B6841
:1034E0009B7B002B12D140F64C03C2F200031B68F9
:1034F0005B7E002B0AD140F64C03C2F200031B682E
:103500009B7E002B02D14FF0010301E04FF000033E
:10351000002B7FF42FAF40F2FC53C2F200031B6874
:10352000012B2FD040F20863C2F200034FF00002DB
:103530001A6040F21063C2F200034FF0FF021A60FB
:1035400001F05CF803461A4640F20863C2F2000339
:103550001A6040F20D63C2F200034FF001021A70CC
:1035600000F0C6FC40F20D63C2F200034FF000020F
:103570001A7040F2FC53C2F200031B68184600F0B8
:10358000BDFC09E04FF001004FF0010100F0CAFC62
:103590004FF0030000F0F6FCFEE740F20463C2F2D5
:1035A00000031B68002B07D000F008FD0346002B2A
:1035B00002D14FF0010301E04FF00003002B39D09E
:1035C00040F20863C2F200034FF000021A6040F2BA
:1035D0001063C2F200034FF0FF021A6040F204636E
:1035E000C2F200031A6840F2FC53C2F200031A60F0
:1035F00001F004F803461A4640F20863C2F20003E1
:103600001A6040F20D63C2F200034FF001021A701B
:1036100000F06EFC40F20D63C2F200034FF00002B6
:103620001A7040F20463C2F200031B68184600F0EF
:103630006FFCFEE74FF47A7001F026F8FAE700BF5E
:1036400080B500AF40F29863C2F200034FF0000271
:103650001A6040F29863C2F200031B68DBB24FF0BD
:103660000A00194603F022FD40F29C63C2F20003F7
:103670004FF0C8021A6040F2A063C2F2000341F2A8
:1036800088321A6040F2A463C2F2000341F2707201
:103690001A6040F2A863C2F200034FF003021A60FE
:1036A00040F2AC63C2F200034FF014021A6040F221
:1036B000B063C2F200034FF046021A6040F2B463F6
:1036C000C2F200034FF028021A6040F2B863C2F25F
:1036D00000034FF02D021A6018E04FF0020003F0D3
:1036E00019FD03461A4640F20803C2F200031A60AD
:1036F00040F20803C2F200031B68002B06D140F21F
:10370000BC63C2F200034FF001021A6040F2BC63D6
:10371000C2F200031B68002B14BF00230123DBB29D
:10372000002BDAD12AE000F0ADF900F071FA00F0D8
:103730006DFB4FF0010003F0EDFC03461A4640F22A
:103740000403C2F200031A6040F20403C2F2000351
:103750001B68002B12D14FF002004FF0000104F063
:10376000B1FC4FF003004FF0000104F0ABFC40F25D
:10377000BC63C2F200034FF002021A6040F2BC6365
:10378000C2F200031B68012B14BF00230123DBB22C
:10379000002BC8D141E04FF001004FF0500104F080
:1037A00091FC4FF4FA7000F06FFF4FF001006FF0E2
:1037B0004F0104F087FC4FF4FA7000F065FF4FF002
:1037C00001004FF0000104F07DFC4FF4FA7000F0AE
:1037D0005BFF00F057F900F01BFA40F28C63C2F275
:1037E00000031A6840F28F139A4216DC4FF0020071
:1037F0006FF0630104F066FC4FF003004FF06401CA
:1038000004F060FC4FF47A7000F03EFF40F2BC63BD
:10381000C2F200034FF003021A6040F2BC63C2F22E
:1038200000031B68022B14BF00230123DBB2002B13
:10383000B1D13CE040F29863C2F200034FF00102C4
:103840001A6040F29863C2F200031B68DBB24FF0CB
:103850000A00194603F02AFC00F014F900F0D8F928
:1038600000F0D4FA4FF0010003F054FC03461A466E
:1038700040F20403C2F200031A6040F20403C2F2F1
:1038800000031B68002B12D14FF002004FF0000123
:1038900004F018FC4FF003004FF0000104F012FC9C
:1038A00040F2BC63C2F200034FF004021A6040F21F
:1038B000BC63C2F200031B68032B14BF0023012367
:1038C000DBB2002BB6D140F2BC63C2F200031B682E
:1038D000042B51D14FF001004FF0500104F0F2FBE6
:1038E0004FF4FA7000F0D0FE4FF001004FF00001ED
:1038F00004F0E8FB4FF4FA7000F0C6FE40F2BC633F
:10390000C2F200034FF005021A6035E04FF00400E8
:103910004FF0050106F03AFA4FF004004FF00501B0
:1039200006F0AAF903461A4640F20003C2F2000369
:103930001A604FF002006FF07E0104F0C3FB4FF0FD
:1039400003004FF07F0104F0BDFB40F20003C2F220
:1039500000031B68142B0FDC4FF002006FF07E0198
:1039600004F0B0FB4FF003004FF07F0104F0AAFB1E
:103970004FF4FA7000F088FE40F2BC63C2F200031C
:103980001B68052B14BF00230123DBB2002BBDD124
:103990004FF00103184680BD80B588B008AF4FF0E6
:1039A00000004FF0000100F0A9FB4FF0010000F013
:1039B000C9FB40F20870C0F6010000F059FB4FF05F
:1039C000000300934FF0000301934FF000030293B4
:1039D0004FF0000303934FF0000304934FF00003F4
:1039E00005934FF0000306934FF0000307934FF049
:1039F00001004FF001014FF001024FF0010303F00D
:103A0000D9FA4FF0050300934FF0060301934FF0EE
:103A1000070302934FF0080303934FF00903049345
:103A20004FF00A0305934FF001004FF002014FF0F1
:103A300003024FF0040307F0A3F84FF000030093D4
:103A40004FF0000301934FF0000302934FF0000387
:103A500003934FF0000304934FF0000305934FF0DE
:103A600000004FF000014FF000024FF0000307F09C
:103A70008FF94EF6B150C6F27120FCF771FFBD46CA
:103A800080BD00BF80B500AF4FF00B004FF00101CB
:103A900003F00CFB4FF00C004FF0010103F006FBAC
:103AA0004FF00C004FF0000103F000FB4FF0050059
:103AB00000F0EAFD4FF00B004FF0000103F0F6FAC2
:103AC00040F2A863C2F200031B68184600F0DCFD58
:103AD0004FF0010003F056FB03461A4640F26C63B8
:103AE000C2F200031A6000F06BF8024640F2706305
:103AF000C2F200031A6000F063F8024640F27463F9
:103B0000C2F200031A6000F05BF8024640F27863EC
:103B1000C2F200031A6000F053F8024640F27C63E0
:103B2000C2F200031A6000F04BF8024640F28063D4
:103B3000C2F200031A6000F043F8024640F28463C8
:103B4000C2F200031A6000F03BF8024640F28863BC
:103B5000C2F200031A6040F26C63C2F200031A68FA
:103B600040F27063C2F200031B68D21840F2746323
:103B7000C2F200031B68D21840F27863C2F200035D
:103B80001B68D21840F27C63C2F200031B68D21893
:103B900040F28063C2F200031B68D21840F28463D3
:103BA000C2F200031B68D21840F28863C2F200031D
:103BB0001B68D21840F28C63C2F200031A6080BD09
:103BC00080B582B000AF4FF00B004FF0010103F061
:103BD0006DFA4FF0050000F057FD4FF00B004FF06D
:103BE000000103F063FA40F2A863C2F200031B680D
:103BF000184600F049FD4FF0010003F0C3FA0346F8
:103C00007B607B68184607F10807BD4680BD00BF92
:103C100080B400AF40F26C63C2F200031A6840F255
:103C20009063C2F200031A6040F29463C2F2000390
:103C30004FF000021A6040F27063C2F200031A688B
:103C400040F29063C2F200031B689A4210DD40F21A
:103C50007063C2F200031A6840F29063C2F200037C
:103C60001A6040F29463C2F200034FF001021A603E
:103C700040F27463C2F200031A6840F29063C2F229
:103C800000031B689A4210DD40F27463C2F2000325
:103C90001A6840F29063C2F200031A6040F2946323
:103CA000C2F200034FF002021A6040F27863C2F2DF
:103CB00000031A6840F29063C2F200031B689A4244
:103CC00010DD40F27863C2F200031A6840F290639C
:103CD000C2F200031A6040F29463C2F200034FF094
:103CE00003021A6040F27C63C2F200031A6840F2D9
:103CF0009063C2F200031B689A4210DD40F27C63BD
:103D0000C2F200031A6840F29063C2F200031A6024
:103D100040F29463C2F200034FF004021A6040F2D2
:103D20008063C2F200031A6840F29063C2F200039B
:103D30001B689A4210DD40F28063C2F200031A68E9
:103D400040F29063C2F200031A6040F29463C2F240
:103D500000034FF005021A6040F28463C2F20003D0
:103D60001A6840F29063C2F200031B689A4210DDA9
:103D700040F28463C2F200031A6840F29063C2F218
:103D800000031A6040F29463C2F200034FF006028F
:103D90001A6040F28863C2F200031A6840F290632E
:103DA000C2F200031B689A4210DD40F28863C2F23F
:103DB00000031A6840F29063C2F200031A6040F2F6
:103DC0009463C2F200034FF007021A60BD4680BC44
:103DD000704700BF80B485B000AF78607B687F2BF0
:103DE00003DD4FF07F03FB6009E07B6813F17F0F79
:103DF00003DA6FF07E03FB6001E07B68FB60FB6829
:103E0000184607F11407BD4680BC704780B584B0E2
:103E100000AF40F29463C2F200031B68C3F10403D5
:103E20007B6040F2AC63C2F200031A687B6802FB5D
:103E300003F3FB6040F2B063C2F200031B68BB6097
:103E400040F28C63C2F200031A6840F29C63C2F233
:103E500000031B689A420ADA4FF00003BB6040F28D
:103E6000B863C2F200031B68C3F10003FB6040F2B9
:103E70008C63C2F200031A6840F2A063C2F200032E
:103E80001B689A4205DD40F2B463C2F200031B686E
:103E9000BB6040F28C63C2F200031A6840F2A46374
:103EA000C2F200031B689A4205DD4FF00003BB60BD
:103EB0004FF00003FB60FA68BB68D3181846FFF7A1
:103EC00089FF38604FF00200396804F0FBF8FA68A7
:103ED000BB68D31A1846FFF77DFF38604FF0030028
:103EE000396804F0EFF807F11007BD4680BD00BF48
:103EF00080B400AFBD4680BC704700BF80B483B0C3
:103F000000AF786007F10C07BD4680BC704700BF6A
:103F100080B483B000AF786007F10C07BD4680BC69
:103F2000704700BF80B582B000AF02460B46FA80F2
:103F30007B717B79002B02D04FF0010301E04FF041
:103F40000003FA884FF4E050C4F2010011461A460B
:103F500008F0B2F907F10807BD4680BD80B582B010
:103F600000AF0346FB80FB884FF4E050C4F2010031
:103F7000194608F061F90346184607F10807BD46DF
:103F800080BD00BF80B582B000AF0346FB7103F077
:103F900031FBFB79012B02D0FB79022B01D100F020
:103FA00023FA4FF010004FF00101FFF7BBFF4FF075
:103FB000010080F3108808F059FDFEE780B500AFDE
:103FC00040F2FC53C2F200031B68002B0ADD4FF0E5
:103FD0000100FFF7C3FF0346002B14BF002301239A
:103FE000DBB20BE04FF00100FFF7B8FF0346002BF8
:103FF00002D04FF0010301E04FF00003184680BDEE
:1040000080B500AF4FF00200FFF7A8FF0346002B7A
:1040100002D14FF0010301E04FF00003184680BDCC
:1040200080B400AF40F2FC53C2F200031B68002BC7
:1040300017DB40F20463C2F200031B68002B10DBA5
:1040400040F2FC53C2F200031B68002B06DC40F276
:104050000463C2F200031B68002B02DD4FF0010372
:1040600001E04FF000031846BD4680BC704700BF1A
:1040700080B584B000AF78604FF00003FB600CE0C7
:1040800040F20C03C2F20003FA689B184FF02002C2
:104090001A70FB6803F10103FB60FB68072BCCBFC0
:1040A00000230123DBB2002BEAD17868FCF70CFD7A
:1040B0000346BB60BB68082B1CDC4FF00003FB60B1
:1040C0000FE0FB687A68D3181B78DAB240F20C0371
:1040D000C2F20003F9685B181A70FB6803F1010370
:1040E000FB60FA68BB689A42ACBF00230123DBB2D5
:1040F000002BE6D107F11007BD4680BD80B483B028
:1041000000AF786039607B68B3F1FF3F03D03B6854
:10411000B3F1FF3F05D14FF0FF337B604FF0FF332A
:104120003B6040F2FC53C2F200037A681A6040F22E
:104130000463C2F200033A681A6007F10C07BD4637
:1041400080BC704780B483B000AF0346FB7140F27F
:104150000063C2F20003FA791A7007F10C07BD463A
:1041600080BC704780B500AF40F2FC53C2F2000340
:104170001B68002B2BDD00F069FA024640F2FC536D
:10418000C2F200031B689A4294BF00230123DBB2F2
:10419000002B1CD0FFF712FF0346002B0CBF00239F
:1041A0000123DBB2002B06D04FF001004FF00101DC
:1041B000FFF7B8FE0BE04FF001004FF00001FFF7F2
:1041C000B1FE4FF002004FF00101FFF7ABFE4FF0E0
:1041D0000103184680BD00BF80B500AF4FF004005A
:1041E000FFF7BCFE0346002B0CBF00230123DBB20C
:1041F000184680BD80B582B000AF02460B46FA710A
:10420000BB71FB79002B13D04FF004004FF001017C
:10421000FFF788FEBB79C82B02D14FF0010301E004
:104220004FF000034FF020001946FFF77BFE05E03A
:104230004FF004004FF00001FFF774FE4FF0040050
:10424000FFF7A0FE07F10807BD4680BD0000000093
:1042500090B583B000AF40F64C03C2F200031B6878
:104260001B791846FDF768F902460B4610461946B9
:1042700013A3D3E90023FDF7C5F902460B46104608
:104280001946FDF781FC03467B604FF001031C4695
:1042900078680D49FDF774FF0346002B02D14FF0FB
:1042A00000031C46E3B2002B01D0084B7B607B6807
:1042B000184607F10C07BD4690BD00BFAFF3008064
:1042C0008A1F63EE5A42AE3F0000803F00000000AC
:1042D00080B483B000AF4FF47843C0F605033B6071
:1042E00040F21863C2F200034FF000021A604FF070
:1042F00000037B6034E07A684FF4FC43C0F2012392
:10430000D3184FEA83033B603B681B68B3F1FF3F60
:104310000CBF00230123DBB2002B12D07B6803F11A
:1043200001023B68196840F21863C2F2000343F8C7
:10433000221040F2C163C2F200034FF001021A7072
:104340000AE07B6803F1010240F21863C2F2000345
:104350004FF0000143F822107B6803F101037B60FA
:104360007B68132BCCBF00230123DBB2002BC2D10F
:104370004FF00003184607F10C07BD4680BC70479C
:1043800080B485B000AF0346FB714FF00003FB73B0
:1043900019E0FA7B41F28043C2F200034FEA821235
:1043A0009B189B78FA799A4209D1FA7B41F28043B3
:1043B000C2F200034FEA82129B185B780DE0FB7B90
:1043C00003F10103FB73FB7B092B8CBF002301234B
:1043D000DBB2002BDDD14FF00003184607F11407C4
:1043E000BD4680BC704700BF80B584B000AF4FF0C1
:1043F0000003BB734FF00003FB7312E0FB7B03F180
:10440000010240F21863C2F2000353F82230002B7D
:1044100003D04FF00103BB730BE0FB7B03F10103FF
:10442000FB73FB7B132B8CBF00230123DBB2002B20
:10443000E4D14FF000037B734FF00003FB7318E0EF
:10444000FA7B41F2C013C2F2000353F83220F97B29
:1044500041F21023C2F2000353F82130D318002B8D
:1044600003D04FF001037B730BE0FB7B03F10103EF
:10447000FB73FB7B092B8CBF00230123DBB2002BDA
:10448000DED140F2C263C2F200031B78002B05D0DC
:104490007B7B002B02D04FF0010201E04FF00002C5
:1044A00040F2C263C2F200031A7040F2C163C2F26A
:1044B00000031B78002B0CD1BB7B002B09D140F2F1
:1044C000C263C2F200031B78002B02D14FF0FF033E
:1044D0008FE04FF47843C0F605037B6007F026FCBD
:1044E0004FF0350007F0FCFC4FF47840C0F60500B3
:1044F00007F046FC0346FB7040F2C163C2F20003C2
:104500001B78002B02D1BB7B002B27D04FF0000380
:10451000FB731BE0FA7B4FF4FC43C0F20123D3187A
:104520004FEA83037B60FB7B03F1010240F21863D7
:10453000C2F2000353F822307868194607F06CFC89
:104540000346FB70FB7B03F10103FB73FB7B132B27
:104550008CBF00230123DBB2002BDBD140F2C2630E
:10456000C2F200031B78002B3FD04FF00003FB7317
:1045700033E0FA7B47F61463C0F20123D3184FEA05
:1045800083037B60FA7B41F2C013C2F2000353F84D
:104590003230BB60FB7B1846FFF7F2FE0346022B6E
:1045A00014BF00230123DBB2002B03D0BB68C3F18F
:1045B0000003BB60FA7B41F21023C2F2000353F800
:1045C0002220BB68D3187868194607F025FC0346FB
:1045D000FB70FB7B03F10103FB73FB7B092B8CBF9F
:1045E00000230123DBB2002BC3D107F0B7FB4FF050
:1045F0000003184607F11007BD4680BD80B483B0A4
:1046000000AF40F22873C2F200031B687B607B6836
:10461000184607F10C07BD4680BC704780B483B0D4
:1046200000AF40F22873C2F200031B687B607A6817
:1046300044F6D353C1F26203A3FB02134FEA931370
:10464000184607F10C07BD4680BC704780B483B0A4
:1046500000AF40F22873C2F200031B687B6040F297
:104660000863C2F200031B687A68D21A44F6D35377
:10467000C1F26203A3FB02134FEA9313184607F13A
:104680000C07BD4680BC704780B483B000AF786033
:104690007B68002B23DD7B6803F00703002B03D12D
:1046A0007B6803F101037B607A6840F22073C2F2F9
:1046B00000031A6040F22473C2F200034FF00102BB
:1046C0001A7040F22473C2F200031B78DBB2002B95
:1046D0000CBF00230123DBB2002BF2D100E000BFAE
:1046E00007F10C07BD4680BC704700BF80B582B0A3
:1046F00000AF40F22873C2F200031B6803F101020D
:1047000040F22873C2F200031A6040F22473C2F22E
:1047100000031B78DBB2002B0CBF00230123DBB2AC
:10472000002B1ED040F22073C2F200031B6803F17D
:10473000FF3240F22073C2F200031A6040F220738D
:10474000C2F200031B68002B14BF00230123DBB25D
:10475000002B06D040F22473C2F200034FF0000297
:104760001A7004F0EBFB78607B68002B04DB7B683D
:10477000DBB2184604F05EFC04F0FAFD05F0BAFC6A
:1047800040F24873C2F200035B78DBB2002B0CBF2F
:1047900000230123DBB2002B0BD040F22C73C2F2BA
:1047A00000035B6803F1010240F22C73C2F20003C4
:1047B0005A6040F24873C2F200039B78DBB2002BD0
:1047C0000CBF00230123DBB2002B0BD040F22C7373
:1047D000C2F200039B6803F1010240F22C73C2F2A3
:1047E00000039A6040F24873C2F20003DB78DBB248
:1047F000002B0CBF00230123DBB2002B0BD040F2B7
:104800002C73C2F20003DB6803F1010240F22C7347
:10481000C2F20003DA6040F24873C2F200031B796F
:10482000DBB2002B0CBF00230123DBB2002B0BD02B
:1048300040F22C73C2F200031B6903F1010240F243
:104840002C73C2F200031A6140F24873C2F20003F3
:104850005B79DBB2002B0CBF00230123DBB2002B02
:104860000BD040F22C73C2F200035B6903F101022A
:1048700040F22C73C2F200035A6140F24873C2F254
:1048800000039B79DBB2002B0CBF00230123DBB2BA
:10489000002B0BD040F22C73C2F200039B6903F192
:1048A000010240F22C73C2F200039A6140F250738D
:1048B000C2F200031B68002B15D040F25473C2F201
:1048C00000031B6803F1FF3240F25473C2F200038D
:1048D0001A6040F25473C2F200031B68002B02D12D
:1048E0004FF0010301E04FF00003002B0FD040F226
:1048F0005073C2F200031B68984740F25873C2F22B
:1049000000031A6840F25473C2F200031A6040F2C6
:104910005C73C2F200031B68002B15D040F2607379
:10492000C2F200031B6803F1FF3240F26073C2F26F
:1049300000031A6040F26073C2F200031B68002B90
:1049400002D14FF0010301E04FF00003002B0FD024
:1049500040F25C73C2F200031B68984740F2647334
:10496000C2F200031A6840F26073C2F200031A60D8
:1049700040F26873C2F200031B68002B15D040F2AE
:104980006C73C2F200031B6803F1FF3240F26C73D8
:10499000C2F200031A6040F26C73C2F200031B689B
:1049A000002B02D14FF0010301E04FF00003002B78
:1049B0000FD040F26873C2F200031B68984740F2C0
:1049C0007073C2F200031A6840F26C73C2F2000303
:1049D0001A6040F27473C2F200031B68002B15D0FA
:1049E00040F27873C2F200031B6803F1FF3240F219
:1049F0007873C2F200031A6040F27873C2F20003C7
:104A00001B68002B02D14FF0010301E04FF00003BF
:104A1000002B0FD040F27473C2F200031B6898475A
:104A200040F27C73C2F200031A6840F27873C2F25B
:104A300000031A6040F28073C2F200031B68002B6F
:104A400015D040F28473C2F200031B6803F1FF32F9
:104A500040F28473C2F200031A6040F28473C2F21F
:104A600000031B68002B02D14FF0010301E04FF05F
:104A70000003002B0FD040F28073C2F200031B68CA
:104A8000984740F28873C2F200031A6840F28473B8
:104A9000C2F200031A6040F28C73C2F200031B687A
:104AA000002B15D040F29073C2F200031B6803F193
:104AB000FF3240F29073C2F200031A6040F290732A
:104AC000C2F200031B68002B02D14FF0010301E08A
:104AD0004FF00003002B0FD040F28C73C2F20003A2
:104AE0001B68984740F29473C2F200031A6840F2C0
:104AF0009073C2F200031A6040F2FC53C2F200034A
:104B00001B68002B00F0988040F20863C2F200039B
:104B10001B68002B00F0908040F2FC53C2F20003AF
:104B20001B68002B2FDD40F64C03C2F200031B680C
:104B3000DB7803F00803002B25D040F64C03C2F2CB
:104B400000031B68DB7823F07F03DBB24FF0020029
:104B50001946FFF7E7F940F64C03C2F200031B6861
:104B6000DB7803F04003002B02D04FF0010301E09B
:104B70004FF000034FF001001946FFF7D3F94FF053
:104B80000A00FFF7FFF9FFF73BFA0346FB7040F21C
:104B90001463C2F200031B78FA789A4214D040F2F0
:104BA0001463C2F200031B78FF2B06D140F214639A
:104BB000C2F20003FA781A7006E0FB78002B03D1EA
:104BC0004FF00100FFF7DEF9FB78002B12D0FFF762
:104BD000C9FA0346002B0DD0FFF7F0F903461A4639
:104BE00040F21063C2F200031B689A4202D04FF0F9
:104BF000010301E04FF00003002B1DD040F21063D1
:104C0000C2F200031B68FF2B09D1FFF7D7F9034657
:104C10001A4640F21063C2F200031A600CE0FFF77C
:104C2000CDF903461A4640F21063C2F200031A603F
:104C30004FF00200FFF7A6F940F2C063C2F2000392
:104C40001B78012B1FD140F2C073C2F200031A6817
:104C500040F2F3139A420ADD40F2C073C2F200033D
:104C60004FF000021A604FF00B0002F0B1FA40F270
:104C7000C073C2F200031B6803F1010240F2C0736B
:104C8000C2F200031A6040F2C473C2F200031B6850
:104C9000032B08DD40F2C473C2F200034FF00002A0
:104CA0001A6005F037FE40F2C473C2F200031B68BD
:104CB00003F1010240F2C473C2F200031A6040F231
:104CC0001403C2F200031B68032B40F39A8040F2E6
:104CD0001403C2F200034FF000021A6040F298730E
:104CE000C2F200031B68002B15D040F29C73C2F285
:104CF00000031B6803F1FF3240F29C73C2F2000311
:104D00001A6040F29C73C2F200031B68002B02D1B0
:104D10004FF0010301E04FF00003002B0FD040F2F1
:104D20009873C2F200031B68984740F2A073C2F266
:104D300000031A6840F29C73C2F200031A6040F24A
:104D4000A473C2F200031B68002B15D040F2A873B5
:104D5000C2F200031B6803F1FF3240F2A873C2F2F3
:104D600000031A6040F2A873C2F200031B68002B14
:104D700002D14FF0010301E04FF00003002B0FD0F0
:104D800040F2A473C2F200031B68984740F2AC7370
:104D9000C2F200031A6840F2A873C2F200031A605C
:104DA00040F2B073C2F200031B68002B15D040F232
:104DB000B473C2F200031B6803F1FF3240F2B47314
:104DC000C2F200031A6040F2B473C2F200031B681F
:104DD000002B02D14FF0010301E04FF00003002B44
:104DE0000FD040F2B073C2F200031B68984740F244
:104DF000B873C2F200031A6840F2B473C2F200033F
:104E00001A6040F21403C2F200031B6803F10102AE
:104E100040F21403C2F200031A6007F10807BD460E
:104E200080BD00BF80B500AF4FF080404FF008015B
:104E300008F0E0FC0346002B0CBF00230123DBB28B
:104E4000002B00F0B9804FF0804008F0C5FC03460D
:104E50001A4640F2C463C2F200031A804FF0804346
:104E60004FF000029A8440F2BD73C2F200031B7837
:104E7000002B06D140F2F063C2F200034FF00102B2
:104E80001A8040F2BD73C2F200031B78002B76D06B
:104E900040F2C463C2F200031A8842F227339A42F6
:104EA0006DD840F2C463C2F200031B88B3F5915F72
:104EB0001CD940F2F063C2F200031A88114640F296
:104EC000C463C2F200031B88A3F5915398B240F269
:104ED000C863C2F2000323F8110002F101039AB281
:104EE00040F2F063C2F200031A8026E040F2C4638D
:104EF000C2F200031A8840F2CF739A4207D840F2F8
:104F0000BD73C2F200034FF000021A7015E040F2C8
:104F1000F063C2F200031A88114640F2C863C2F27D
:104F200000034FF0010023F8110002F101039AB2CF
:104F300040F2F063C2F200031A8040F2F063C2F262
:104F400000031B88062B0CD140F21F73C2F2000332
:104F50001B7843F00403DAB240F21F73C2F200037D
:104F60001A7040F2F063C2F200031B88062B06D9C8
:104F700040F2BD73C2F200034FF000021A7040F21B
:104F8000C463C2F200031A8842F210739A420DD928
:104F900040F2BD73C2F200031B78002B06D140F231
:104FA000BD73C2F200034FF001021A704FF080404F
:104FB0004FF0080108F050FC80BD00BF80B500AF85
:104FC0004FF48060C4F200004FF0080108F012FCBA
:104FD0000346002B0CBF00230123DBB2002B00F0A3
:104FE000BF804FF48060C4F2000008F0F5FB034678
:104FF0001A4640F2C463C2F200031A804FF4806381
:10500000C4F200034FF000029A8440F2BC73C2F273
:1050100000031B78002B06D140F21C73C2F2000380
:105020004FF001021A8040F2BC73C2F200031B78F9
:10503000002B76D040F2C463C2F200031A8842F219
:1050400027339A426DD840F2C463C2F200031B8832
:10505000B3F5915F1CD940F21C73C2F200031A88A9
:10506000114640F2C463C2F200031B88A3F59153BA
:1050700098B240F2F463C2F2000323F8110002F187
:1050800001039AB240F21C73C2F200031A8026E0B8
:1050900040F2C463C2F200031A8840F2CF739A420E
:1050A00007D840F2BC73C2F200034FF000021A703E
:1050B00015E040F21C73C2F200031A88114640F258
:1050C000F463C2F200034FF0010023F8110002F173
:1050D00001039AB240F21C73C2F200031A8040F23C
:1050E0001C73C2F200031B88062B0CD140F21F7305
:1050F000C2F200031B7843F00803DAB240F21F73D8
:10510000C2F200031A7040F21C73C2F200031B8843
:10511000062B06D940F2BC73C2F200034FF0000226
:105120001A7040F2C463C2F200031A8842F210738C
:105130009A420DD940F2BC73C2F200031B78002BD7
:1051400006D140F2BC73C2F200034FF001021A70A4
:105150004FF48060C4F200004FF0080108F07CFBBF
:1051600080BD00BF80B483B000AF7860396040F28A
:105170005073C2F200031B68002B16D140F2587323
:10518000C2F200037A681A6040F25873C2F2000358
:105190001A6840F25473C2F200031A6040F250736E
:1051A000C2F200033A681A6094E040F25C73C2F203
:1051B00000031B68002B16D140F26473C2F2000397
:1051C0007A681A6040F26473C2F200031A6840F20F
:1051D0006073C2F200031A6040F25C73C2F2000313
:1051E0003A681A6076E040F26873C2F200031B6806
:1051F000002B16D140F27073C2F200037A681A6075
:1052000040F27073C2F200031A6840F26C73C2F28B
:1052100000031A6040F26873C2F200033A681A6031
:1052200058E040F27473C2F200031B68002B16D1E1
:1052300040F27C73C2F200037A681A6040F27C7319
:10524000C2F200031A6840F27873C2F200031A60D7
:1052500040F27473C2F200033A681A603AE040F216
:105260008073C2F200031B68002B16D140F28873D2
:10527000C2F200037A681A6040F28873C2F2000337
:105280001A6840F28473C2F200031A6040F280731D
:10529000C2F200033A681A601CE040F28C73C2F25A
:1052A00000031B68002B15D140F29473C2F2000377
:1052B0007A681A6040F29473C2F200031A6840F2EE
:1052C0009073C2F200031A6040F28C73C2F20003C2
:1052D0003A681A6007F10C07BD4680BC704700BFF2
:1052E00080B483B000AF786040F25073C2F2000324
:1052F0001A687B689A4207D140F25073C2F20003E9
:105300004FF000021A604EE040F25C73C2F20003FC
:105310001A687B689A4207D140F25C73C2F20003BC
:105320004FF000021A603EE040F26873C2F20003E0
:105330001A687B689A4207D140F26873C2F2000390
:105340004FF000021A602EE040F27473C2F20003C4
:105350001A687B689A4207D140F27473C2F2000364
:105360004FF000021A601EE040F28073C2F20003A8
:105370001A687B689A4207D140F28073C2F2000338
:105380004FF000021A600EE040F28C73C2F200038C
:105390001A687B689A4206D140F28C73C2F200030D
:1053A0004FF000021A6007F10C07BD4680BC704741
:1053B00080B582B000AF00F0A5FB40F60802C2F253
:1053C000000240F64803C2F200031A6040F2C872BD
:1053D000C2F2000240F64C03C2F200031A6040F62B
:1053E0004803C2F200031B6818464FF000014FF05B
:1053F0002002FBF757FA40F64803C2F200031B688D
:105400004CF617121A8040F64803C2F200031B68DC
:105410004FF002029A7040F64803C2F200031B6884
:105420004FF001029A7740F64803C2F200031B686E
:105430004FF00002DA7040F20063C2F200031B7802
:10544000002B0ED040F64803C2F200031A6840F663
:105450004803C2F200031B68DB7843F00103DBB2B0
:10546000D37002F051FE4FF000037B6023E040F662
:105470004C03C2F200031A687B68D3184FF07F0216
:105480009A7140F64C03C2F200031A687B68D31885
:1054900003F110034FF07F029A7040F64803C2F206
:1054A00000031A687B68D3184FF07F029A717B68FB
:1054B00003F101037B607B68072BCCBF0023012332
:1054C000DBB2002BD3D140F64C03C2F200031B68C1
:1054D0004FF000025A7340F64C03C2F200031B68FF
:1054E0004FF000029A7340F64C03C2F200031B68AF
:1054F0004FF000025A7640F64C03C2F200031B68DC
:105500004FF000029A764FF000037B6015E040F602
:105510005403C2F200037A684FF07F0123F812109F
:1055200040F69403C2F200037A684FF07F0123F83B
:1055300012107B6803F101037B607B681F2BCCBFDB
:1055400000230123DBB2002BE1D107F10807BD46A0
:1055500080BD00BF80B582B000AF4FF00003BB71CB
:1055600040F21F73C2F200031B7803F00403002B08
:1055700003D04FF0010000F0F5FB40F21F73C2F2C0
:1055800000031B7803F00803002B03D04FF0020048
:1055900000F0E8FB4FF44060C4F201004FF480617A
:1055A00006F026FE0346002B14BF00230123DBB2C6
:1055B000002B0CD040F60133C2F200031B7843F0FD
:1055C0000103DAB240F60133C2F200031A704FF45D
:1055D0008050C4F201004FF4807106F009FE0346CA
:1055E000002B14BF00230123DBB2002B0CD040F6AC
:1055F0000133C2F200031B7843F00203DAB240F633
:105600000133C2F200031A7040F21E73C2F20003AB
:105610004FF000021A70BB79002B0AD140F2C06330
:10562000C2F200031B78012B03D14FF00C0001F0F4
:10563000CFFDBB7903F1010146F26763C6F26663F1
:1056400083FB01234FEAA3024FEAE173D21A134608
:105650004FEA83039B184FEA4303CA1A1346BB71F0
:1056600040F65103C2F200031B78002B0DD040F628
:105670005103C2F200031B7803F1FF33DAB240F6A4
:105680005103C2F200031A7019E040F21F73C2F214
:1056900000031B7823F00103DAB240F21F73C2F259
:1056A00000031A7040F60133C2F200031B7823F0A6
:1056B0000103DAB240F60133C2F200031A7040F679
:1056C0005203C2F200031B78002B0DD040F65203A8
:1056D000C2F200031B7803F1FF33DAB240F6520343
:1056E000C2F200031A7019E040F21F73C2F2000305
:1056F0001B7823F00203DAB240F21F73C2F20003F8
:105700001A7040F60133C2F200031B7823F0020343
:10571000DAB240F60133C2F200031A7000F026F943
:1057200040F64C03C2F200031B681A884CF61713AC
:105730009A4240F0168140F64C03C2F200031B6807
:105740009B7803F00203002B02D000F065FA08E119
:1057500040F64C03C2F200031B689B7803F004037D
:10576000002B10D040F64803C2F200031B684FF034
:1057700008029A7040F64C03C2F200031B684FF017
:105780000102DA77EDE040F64C03C2F200031B6839
:105790009B78082B40F0E58040F64803C2F20003F6
:1057A0001B684FF008029A7040F64C03C2F20003E7
:1057B0001B68DB7803F00803002B0CBF00230123D8
:1057C0007B7140F2FC53C2F200031B68B3F1FF3F50
:1057D0002DD17B79002B2AD140F2F953C2F200037C
:1057E0001B78012B23D140F23470C0F6010009F080
:1057F0001BF940F21C03C2F200034FF0FF021A70C3
:1058000040F21D03C2F200034FF0FF021A704FF086
:1058100002004FF00001FEF785FB4FF001004FF052
:105820000001FEF77FFB4FF00800FEF7ABFB40F6F0
:105830004C03C2F200031B68DB7803F00803002B63
:105840000CBF00230123DAB240F2F953C2F2000385
:105850001A7040F2FC53C2F200031B68B3F1FF3F21
:1058600053D140F64C03C2F200031B68DB7803F00F
:105870000803002B49D040F64C03C2F200031B681A
:10588000DB7803F04003002B02D04FF0010301E06E
:105890004FF000033B7140F21C03C2F200031B787F
:1058A0003A799A420BD03B794FF001001946FEF746
:1058B00039FB40F21C03C2F200033A791A7040F639
:1058C0004C03C2F200031B68DB78DBB26FEA030310
:1058D000DBB24FEAD313FB7040F21D03C2F20003A8
:1058E0001B78FA789A4210D0FB78002B14BF002363
:1058F0000123DBB24FF002001946FEF713FB40F222
:105900001D03C2F20003FA781A704FF00003FB7116
:105910001FE0FA7940F64C03C2F200031968FB79E4
:10592000CB18997940F6E823C2F200039954FA792A
:1059300040F64C03C2F200031968FB79CB18997C3E
:1059400040F6F423C2F200039954FB7903F10103FA
:10595000FB71FB790B2B8CBF00230123DBB2002BE7
:10596000D7D107F10807BD4680BD00BF80B584B020
:1059700000AF4FF40060C4F201004FF4006106F084
:105980007FFC4FF000037B604FF00003BB6097E0AB
:105990004FF4C050C4F201004FF0010106F07EFC4C
:1059A00000BF4FF44050C4F201004FF0020107F075
:1059B000CFFC0346002B14BF00230123DBB2002BD6
:1059C000EFD140F60803C2F20003BA6833F8123090
:1059D0004FF44050C4F20100194607F09DFC00BF8F
:1059E0004FF44050C4F201004FF0010107F0B0FC49
:1059F0000346002B14BF00230123DBB2002BEFD1A1
:105A00004FF44050C4F2010007F094FC03461946DD
:105A100040F2C873C2F20003BA6823F8121000BF44
:105A20004FF44050C4F201004FF0020107F090FC27
:105A30000346002B14BF00230123DBB2002BEFD160
:105A40004FF4C050C4F201004FF0010106F018FC01
:105A50004FF00003FB6003E0FB6803F10103FB6010
:105A6000FB68952BCCBF00230123DBB2002BF3D1C5
:105A70007B6803F101037B607B68042B1CD14FF032
:105A80000003FB6003E0FB6803F10103FB60FA68BD
:105A900040F2E7339A42CCBF00230123DBB2002B54
:105AA000F1D14FF40060C4F201004FF4006106F040
:105AB000F5FB4FF000037B60BB6803F10103BB60A3
:105AC000BB680F2BCCBF00230123DBB2002B7FF47C
:105AD0005FAF40F64803C2F200031A6840F6023393
